:020000000001fd
:020001000001fc
:020002002221b9
:020003003c3e81
:02000400333196
:02000500282ba6
:020006001e1fbb
:02000700358141
:020008003bb902
:02000900137f63
:02000a0036348a
:02000b0031f8ca
:02000c002d2e97
:02000d000e7a69
:02000e0038e1d7
:02000f001819be
:020010003ffdb2
:02001100343683
:020012002b9e23
:02001300049e49
:020014001b1ab5
:020015003f01a9
:0200160018fcd4
:0200170005d60c
:02001800169739
:0200190036fcb3
:02001a00073da0
:02001b000ed500
:02001c003e5153
:02001d0010a829
:02001e002e2d85
:02001f000ca92a
:020020003ddfc2
:02002100046772
:020022001a1ba7
:0200230018d3f0
:0200240015cff6
:02002500289819
:02002600024f87
:020027000f9830
:020028000d8d3c
:02002900029241
:02002a003da1f6
:02002b0012546d
:02002c000c7e48
:02002d0005b319
:02002e0002ebe3
:02002f00070cbc
:02003000296a3b
:0200310011e5d7
:020032001b7e33
:020033002fd3c9
:0200340021bfea
:02003500038a3c
:02003600254b58
:0200370027138d
:020038003d0980
:020039003f7313
:02003a00085468
:02003b00184665
:02003c00353756
:02003d001ba204
:02003e00247527
:02003f00293e58
:020040003cceb4
:0200410018eabb
:0200420020128a
:020043003a87fa
:020044002f2c5f
:020045002b8c02
:020046002e4842
:02004700355f23
:0200480028c6c8
:020049003eb7c0
:02004a00144c54
:02004b0029107a
:02004c00230689
:02004d0034037a
:02004e0007ccdd
:02004f000a2481
:0200500024e7a3
:0200510013cbcf
:02005200014962
:02005300336216
:020054003cf17d
:020055001ab1de
:02005600092a75
:020057000bbede
:02005800063f61
:02005900213054
:02005a0020f88c
:02005b0005a3fb
:02005c0023542b
:02005d0002e3bc
:02005e00038617
:02005f003d471b
:0200600014b5d5
:0200610019dda7
:020062002ad39f
:0200630003ddbb
:020064000dbfce
:020065003470f5
:0200660035c89b
:0200670022dc99
:0200680032fe66
:02006900394913
:02006a0001c5ce
:02006b003c81d6
:02006c003084de
:02006d002171ff
:02006e0031a8b7
:02006f00244922
:020070003ca5ad
:020071003ec58a
:020072003d98b7
:02007300197df5
:02007400042a5c
:02007500037b0b
:020076000c2359
:020077003f50f8
:0200780038ba94
:020079002ec592
:02007a000dd1a6
:02007b00018ef4
:02007c00301b37
:02007d00320d42
:02007e00149fcd
:02007f000abfb6
:020080001e67f9
:020081003a54ef
:020082000c75fb
:02008300067302
:02008400100961
:020085001670f3
:020086003f62d7
:0200870011fb6b
:020088001796c9
:0200890010b2b3
:02008a0015c699
:02008b001a4316
:02008c00172437
:02008d003cbb7a
:02008e00388eaa
:02008f00053139
:020090001463f7
:020091002c4bf6
:020092003d7ab5
:020093002982c0
:020094000a263a
:0200950034ea4b
:020096001488cc
:020097000697ca
:020098001183d2
:02009900153020
:02009a0038200c
:02009b0038c962
:02009c0003e679
:02009d0004b5a8
:02009e00051249
:02009f00012935
:0200a0003052dc
:0200a1002aed46
:0200a2002bc46d
:0200a300348a9d
:0200a4002285b3
:0200a500014b0d
:0200a60019b18e
:0200a700166fd2
:0200a8003c59c1
:0200a9002275be
:0200aa002f79ac
:0200ab001e2c09
:0200ac000495b9
:0200ad003155cb
:0200ae0005df6c
:0200af0013d06c
:0200b000213eef
:0200b100200627
:0200b2001098a4
:0200b3001ffb31
:0200b400107cbe
:0200b500217eaa
:0200b60020f038
:0200b7001f2ff9
:0200b80011aa8b
:0200b900160f20
:0200ba002350d1
:0200bb002b0612
:0200bc0001c37e
:0200bd00147fae
:0200be003c8282
:0200bf0035c04a
:0200c000287b9b
:0200c100216eae
:0200c2002ecf3f
:0200c3003467a0
:0200c4003748bb
:0200c500167da6
:0200c60023cf46
:0200c70000f641
:0200c80024fe14
:0200c9001335ed
:0200ca001a38e2
:0200cb001664b9
:0200cc001ae434
:0200cd002e43c0
:0200ce00116eb1
:0200cf002545c5
:0200d000197f96
:0200d100061c0b
:0200d2003e8569
:0200d300122eeb
:0200d40022c345
:0200d500246a9b
:0200d6003c618b
:0200d7002fc038
:0200d8001842cc
:0200d9003020d5
:0200da00329959
:0200db0029ac4e
:0200dc0018d436
:0200dd0018f019
:0200de003005eb
:0200df001a2bda
:0200e0003c736f
:0200e10028fcf9
:0200e2003d439c
:0200e3001abf42
:0200e4001ecc30
:0200e5001f4eac
:0200e6002e9f4b
:0200e70001a175
:0200e8000215ff
:0200e900059d73
:0200ea00239c55
:0200eb001f10e4
:0200ec002430be
:0200ed000361ad
:0200ee001fa849
:0200ef001542b8
:0200f0001c5d95
:0200f1000fde20
:0200f200354394
:0200f3000eb944
:0200f40024c91d
:0200f5002d1fbd
:0200f60000c741
:0200f70023ce16
:0200f8003a2ca0
:0200f9003aab20
:0200fa003b27a2
:0200fb000ee80d
:0200fc00286e6c
:0200fd001d07dd
:0200fe00277e5b
:0200ff0035ae1c
:020100002d12be
:020101002f5b72
:020102001d2ab4
:020103000dcb22
:02010400241bba
:0201050004db19
:020106002118be
:02010700373c83
:020108002a25a6
:02010900277954
:02010a000b38b0
:02010b002a5870
:02010c001fb121
:02010d0039991e
:02010e002adce9
:02010f003b9221
:020110000bcb17
:020111003c01af
:0201120008598a
:02011300054a9b
:020114000ae3fc
:0201150005974c
:020116002f00b8
:02011700293885
:020118000b9248
:020119001eba0c
:02011a003c7c2b
:02011b001d9a2b
:02011c001c477e
:02011d0018ad1b
:02011e0020b906
:02011f00273483
:020120002810a5
:020121001ed4ea
:020122003404a3
:0201230018546e
:020124001ebdfe
:0201250009953a
:0201260014c102
:020127001f3285
:020128000513bd
:02012900009f35
:02012a001a7544
:02012b00363f5d
:02012c000a4483
:02012d000f9c25
:02012e00216a44
:02012f0036fb9d
:020130002ae0c3
:0201310030ff9d
:020132000a9829
:0201330031b1e8
:020134001c109d
:020135000d4477
:020136003e4544
:020137003d1e6b
:0201380001f3d1
:020139003f7510
:02013a00207b28
:02013b003f4a39
:02013c00028936
:02013d000af0c6
:02013e0022b5e8
:02013f00283c5a
:0201400018297c
:020141003b2f52
:0201420037572d
:02014300231b7c
:0201440015e2c2
:0201450013ddc8
:020146001a4558
:0201470019c3da
:0201480033631f
:02014900005262
:02014a0022840d
:02014b0000a50d
:02014c002ef98a
:02014d0011049b
:02014e00291670
:02014f0031ea93
:020150003c0d64
:020151001cc3cd
:02015200331b5d
:02015300099011
:02015400359dd7
:0201550006fea4
:020156000f1682
:02015700260080
:02015800206b1a
:020159002a88f2
:02015a003a8bde
:02015b0032d29e
:02015c0020ceb3
:02015d000ddcb7
:02015e0009e8ae
:02015f0028f086
:02016000109fee
:0201610035d88f
:02016200100388
:0201630015d3b2
:02016400084c45
:02016500335312
:020166002ddc8e
:0201670008503e
:02016800083e4f
:0201690032d191
:02016a0010bfc4
:02016b002c2145
:02016c00107809
:02016d0024a5c7
:02016e002db6ac
:02016f00155a1f
:0201700008d5b0
:0201710002e9a1
:0201720029263c
:020173003e3517
:0201740011a8d0
:020175000e1a60
:020176001583ef
:020177003f9daa
:0201780022c0a3
:020179002681dd
:02017a00281e3d
:02017b00263428
:02017c001e4122
:02017d000389f4
:02017e001ae085
:02017f001c263c
:02018000361c2b
:020181001b2041
:0201820010b7b4
:020183002a0d43
:020184003546fe
:020185003e102a
:0201860038122d
:0201870003442f
:020188001ba4b6
:020189003368d9
:02018a00291f2b
:02018b002a71d7
:02018c0033c678
:02018d0031221d
:02018e00007bf4
:02018f000dd091
:02019000127fdc
:020191003f2eff
:020192002bbb85
:020193002fba81
:020194000d1c40
:02019500242f15
:020196000b322a
:020197001469e9
:020198000d72e6
:020199001a76d4
:02019a0035002e
:02019b0033af80
:02019c0008b7a2
:02019d0009c196
:02019e003083ac
:02019f0008d97d
:0201a0002e9e91
:0201a10000e775
:0201a200030e4a
:0201a3003f8992
:0201a4003d63b9
:0201a5002ca587
:0201a600091737
:0201a7000393c0
:0201a8003340e2
:0201a900094209
:0201aa0012350c
:0201ab0030d151
:0201ac003c1104
:0201ad002b869f
:0201ae0017e058
:0201af0015bc7d
:0201b0000c2120
:0201b10017b97c
:0201b200181023
:0201b30027f82b
:0201b4003b6da1
:0201b50024bf65
:0201b60014d65d
:0201b70029021b
:0201b8000c6acf
:0201b9003e4cba
:0201ba000c78bf
:0201bb0007a596
:0201bc003a23e4
:0201bd000856e2
:0201be002f34dc
:0201bf0013a685
:0201c0003c18e9
:0201c1001340e9
:0201c200147ea9
:0201c30000bc7e
:0201c4003c807d
:0201c500006ace
:0201c6002f7e8a
:0201c7003014f2
:0201c8000f66c0
:0201c900122cf6
:0201ca000fa77d
:0201cb0031c43d
:0201cc00356e8e
:0201cd00190215
:0201ce0022f11c
:0201cf003b50a3
:0201d000232bdf
:0201d10032ca30
:0201d20020ef1c
:0201d30023c344
:0201d40011ce4a
:0201d5000aa975
:0201d6000f8890
:0201d700339a59
:0201d8001218fb
:0201d9000ae535
:0201da0023916f
:0201db00149975
:0201dc000fd43e
:0201dd0007d841
:0201de000aa174
:0201df001f2ad5
:0201e0002c0fe2
:0201e1003fdffe
:0201e20007ef25
:0201e300259a5b
:0201e400388061
:0201e50013867f
:0201e600257d75
:0201e7003102e3
:0201e8003045a0
:0201e90031e4ff
:0201ea0034ae31
:0201eb001c52a4
:0201ec002242ad
:0201ed002cfbe9
:0201ee0011e717
:0201ef003cf8da
:0201f0001d16da
:0201f1000eb04e
:0201f2003f7458
:0201f3000138d1
:0201f4003fb218
:0201f5000f6396
:0201f60007748c
:0201f7002cf2e8
:0201f8001437ba
:0201f90038c507
:0201fa002ca235
:0201fb002212ce
:0201fc0013bf2f
:0201fd003625a5
:0201fe001ad70e
:0201ff000951a4
:0202000016895d
:020201003b0eb2
:02020200358c39
:02020300170cd6
:020204000e9555
:02020500301cab
:0202060024c40e
:020207002e22a5
:02020800302c98
:020209001cb126
:02020a00204c86
:02020b002b8244
:02020c00108c54
:02020d001e0ec3
:02020e001b9e35
:02020f000b6082
:02021000373382
:020211003d7f2f
:02021200319d1c
:02021300059054
:02021400059c47
:0202150000e8ff
:02021600152ca5
:020217003b4466
:020218002df9be
:020219001bae1a
:02021a003eedb7
:02021b00359b11
:02021c00156e5d
:02021d002a2293
:02021e001dc9f8
:02021f000521b7
:0202200027c4f1
:020221003fe3b9
:020222003c217d
:0202230029743c
:02022400260da5
:0202250020b700
:0202260002a52f
:020227003baded
:0202280027505d
:0202290010fec5
:02022a0020eac8
:02022b00399404
:02022c00178039
:02022d003bb5df
:02022e00149c1e
:02022f000e823d
:0202300005c9fe
:0202310028693a
:020232000f5d5e
:020233003fff8b
:020234001e3e6c
:020235000ba01c
:020236000ecdeb
:020237001ba901
:020238002c0296
:020239001ccfd8
:02023a002e771d
:02023b002c9df8
:02023c00327d11
:02023d000bcee6
:02023e00139a11
:02023f000f5b53
:020240001408a0
:020241003bccb4
:020242000f6a41
:020243000ec0eb
:020244001a029c
:020245003c5526
:020246000c2a80
:02024700170f8f
:020248002d7f08
:02024900100c97
:02024a0026eba1
:02024b00367dfe
:02024c00284147
:02024d001a0194
:02024e000f9906
:02024f00002687
:0202500020a8e4
:020251002af190
:02025200226e1a
:02025300096b35
:020254002f1b5e
:020255001ae7a6
:02025600393e2f
:0202570008fe9f
:0202580005227d
:020259003ea0c5
:02025a0007cecd
:02025b0032254a
:02025c0010b5db
:02025d0010bcd3
:02025e00395c09
:02025f0037db8b
:02026000157017
:020261000ae6ab
:020262003a5e02
:020263000faddd
:02026400054c47
:020265003eb3a6
:020266003af963
:020267003e89ce
:020268000e087e
:020269001d185e
:02026a0006a2ea
:02026b003a62f5
:02026c003d0350
:02026d000c770c
:02026e001e8fe1
:02026f003e0e41
:0202700022d892
:020271001d610d
:020272003d9bb2
:020273002d87d5
:02027400321c3a
:020275002280e5
:020276001fa5c2
:020277001babbf
:020278002365fc
:020279001176fc
:02027a00057805
:02027b003857f2
:02027c00337bd2
:02027d003e71d0
:02027e00141e4c
:02027f00066710
:020280002e3519
:02028100120069
:020282003fb685
:02028300352123
:02028400398ab5
:0202850019fb63
:0202860033ac97
:0202870031c67e
:020288000af179
:02028900013c36
:02028a002bcf78
:02028b002a9aad
:02028c002f033e
:02028d001ddb77
:02028e002ec080
:02028f0015f068
:020290003b90a1
:0202910004b0b7
:02029200002941
:020293000d8cd0
:02029400114215
:020295000b6cf0
:020296002273d1
:020297002cdf5a
:02029800355dd2
:020299001c54f3
:02029a000882d8
:02029b002d191b
:02029c00148bc1
:02029d0025ee4c
:02029e0018f551
:02029f002ea887
:0202a0003c27f9
:0202a10007b79d
:0202a2002c40ee
:0202a3000e3318
:0202a4003bac71
:0202a50002262f
:0202a60004c88a
:0202a7003b7e9c
:0202a80038ef2d
:0202a90030d350
:0202aa00037fd0
:0202ab0009d276
:0202ac00078bbe
:0202ad001165d9
:0202ae0013003b
:0202af0028889d
:0202b000321406
:0202b1002c1807
:0202b2001544f1
:0202b300151a1a
:0202b4003f64a5
:0202b5001a9697
:0202b6001969c4
:0202b700107fb6
:0202b8001067cd
:0202b9000c2710
:0202ba0006ee4e
:0202bb001e6fb4
:0202bc0004f448
:0202bd002e26eb
:0202be001478b2
:0202bf002024f9
:0202c0002a6ea4
:0202c10032a366
:0202c2001aec34
:0202c30015a57f
:0202c4002a20ee
:0202c50017ef31
:0202c60028c846
:0202c7003bf307
:0202c80004260a
:0202c900181efd
:0202ca003b886f
:0202cb0015c458
:0202cc0016ee2c
:0202cd003ea24f
:0202ce00042802
:0202cf003fac42
:0202d000041f09
:0202d10005b175
:0202d2003b49a6
:0202d3003156a2
:0202d4002a7e80
:0202d50021699d
:0202d6003431c1
:0202d7002d05f3
:0202d800083ce0
:0202d90018fe0d
:0202da0030737f
:0202db000a54c3
:0202dc0016db2f
:0202dd002a8174
:0202de000aad67
:0202df002054a9
:0202e000264bab
:0202e10037a242
:0202e2002355a2
:0202e300005dbc
:0202e400149371
:0202e5002946a8
:0202e6003d3b9e
:0202e70012966d
:0202e80008d438
:0202e9000171a1
:0202ea00070dfe
:0202eb00002ee3
:0202ec0028e008
:0202ed002743a5
:0202ee003defe2
:0202ef0027a244
:0202f00011609b
:0202f1000c946b
:0202f200316178
:0202f3001eac3f
:0202f400140fe5
:0202f5000e9663
:0202f600131ad9
:0202f70025439d
:0202f8002d01d6
:0202f9001514da
:0202fa0023e5fa
:0202fb00073ebc
:0202fc000d7083
:0202fd00104fa0
:0202fe000e13dd
:0202ff000c2dc4
:020300001b0ed2
:020301001a9e42
:020302000d905c
:020303001ac915
:020304002a7a53
:0203050004b939
:02030600372797
:020307002bcaff
:020308001aa336
:020309002ed5ef
:02030a001f08ca
:02030b00384870
:02030c001c09ca
:02030d00324c70
:02030e0001a24a
:02030f003f8825
:020310000dd20c
:02031100168e46
:0203120019b41c
:0203130034258f
:0203140036ae03
:020315000fb91e
:02031600371995
:02031700177756
:0203180019e3e7
:020319002bd2e5
:02031a00189138
:02031b002116a9
:02031c00221ca1
:02031d0019c8fd
:02031e0006e8ef
:02031f000621b5
:020320002b1e92
:02032100212d8c
:020322001f9723
:020323001612b0
:0203240037fca4
:020325000bc407
:0203260017dde1
:02032700345a46
:02032800068e3f
:0203290014f4ca
:02032a0030366b
:02032b00365743
:02032c00059931
:02032d000b764d
:02032e00281590
:02032f001d743b
:0203300006b90c
:0203310005f9cc
:020332000d3b81
:02033300283e62
:020334001a802d
:020335003f0780
:020336003bf694
:0203370027ccd1
:02033800267a23
:0203390018e8c2
:02033a0026c1da
:02033b00079524
:02033c003a6025
:02033d003f1a65
:02033e00264d4a
:02033f003f4c31
:02034000174f55
:0203410018148e
:02034200225245
:020343003e9ddd
:0203440001872f
:0203450038136b
:020346003de593
:0203470006505e
:020348003c90e7
:02034900273b50
:02034a0034730a
:02034b00291275
:02034c0026aadf
:02034d0029077e
:02034e0023e8a2
:02034f001d5b34
:0203500019a0f2
:0203510004d4d2
:0203520004a104
:02035300105543
:020354002b3b41
:020355002caecc
:020356003a4922
:0203570005534c
:020358003c293e
:0203590028cbaf
:02035a0015c3c9
:02035b00152e5d
:02035c000bf0a4
:02035d000c8e04
:02035e000adeb5
:02035f0038fd67
:02036000243146
:0203610000edad
:0203620029fd73
:020363000a4c42
:020364000c0883
:02036500340d55
:0203660013fc86
:0203670014e29e
:020368003f97bd
:020369000aee9a
:02036a00307ee3
:02036b000d9ae9
:02036c000a6b1a
:02036d002bd192
:02036e001481f8
:02036f00077312
:02037000063550
:020371002e68f4
:020372001f2644
:02037300077e03
:02037400063c45
:02037500322331
:0203760021f371
:0203770005740b
:020378003f3014
:020379002da9ac
:02037a00042b52
:02037b0000750b
:02037c00179ace
:02037d00121557
:02037e0009d3a1
:02037f0002aad0
:020380001e0c51
:020381000be28d
:0203820009a0d0
:020383002e71d9
:020384000a3f2e
:0203850035ab96
:02038600005e17
:020387003d46f1
:020388001e4015
:02038900017df4
:02038a0000353c
:02038b0021be91
:02038c0017bf99
:02038d001dec65
:02038e00180a4b
:02038f000c1a46
:0203900007b3b1
:020391000eadaf
:0203920009164a
:0203930001a7c0
:0203940025f250
:0203950029d26b
:0203960018e26b
:02039700050f50
:020398001ab792
:02039900294aef
:02039a000c81d4
:02039b0028e751
:02039c003359d3
:02039d003a1311
:02039e001da898
:02039f0005f661
:0203a00033b474
:0203a1003938e9
:0203a2001965db
:0203a3001348fd
:0203a4003256cf
:0203a5000cb199
:0203a60033c062
:0203a7000ffa4b
:0203a80008e764
:0203a9003bf126
:0203aa002775b5
:0203ab001ec86a
:0203ac0007c484
:0203ad003451c9
:0203ae0019cd67
:0203af0011310a
:0203b000090c36
:0203b10030f723
:0203b2002753cf
:0203b3002ae33b
:0203b40033e92b
:0203b5001cf03a
:0203b600286db0
:0203b7001c63c5
:0203b80007ea52
:0203b900290019
:0203ba0003ec52
:0203bb002d8e85
:0203bc002771a7
:0203bd0027de39
:0203be000f9599
:0203bf0006e650
:0203c0003426e1
:0203c10012ee3a
:0203c2003dce2e
:0203c30016e53d
:0203c40021d640
:0203c50022c84c
:0203c60012cd56
:0203c7001077ad
:0203c8001c40d7
:0203c90034807e
:0203ca0009c365
:0203cb003f876a
:0203cc00309f60
:0203cd003c4fa3
:0203ce00188194
:0203cf00328a70
:0203d0003a03ee
:0203d10010a674
:0203d20018f21f
:0203d3001b4ac3
:0203d4001a57b6
:0203d5000df227
:0203d6000e29ee
:0203d700333db4
:0203d8001121f1
:0203d9001d58ad
:0203da00345c91
:0203db003c0fd5
:0203dc002ad223
:0203dd000063bb
:0203de001e7c83
:0203df00225aa0
:0203e0000e8b82
:0203e1001850b2
:0203e2000758ba
:0203e300372bb6
:0203e4001fba3e
:0203e5001b9c5f
:0203e600009c79
:0203e70004b45c
:0203e8001fd91b
:0203e9000e9b69
:0203ea0025905c
:0203eb0025b932
:0203ec0003ba52
:0203ed002d8f52
:0203ee0016797e
:0203ef0025d512
:0203f000283aa9
:0203f10018a54d
:0203f2003e4388
:0203f300378051
:0203f4001651a0
:0203f50007708f
:0203f6001109eb
:0203f7000f7580
:0203f8002bfeda
:0203f90021c120
:0203fa00393395
:0203fb0030933d
:0203fc002f4a86
:0203fd0028f9dd
:0203fe0026894e
:0203ff003e6b53
:0204000029656c
:0204010015d90b
:020402001d8754
:020403000924ca
:020404001ac616
:020405000eb631
:020406000b8663
:02040700185784
:02040800256b62
:02040900281dac
:02040a00180eca
:02040b00237e4e
:02040c0012627a
:02040d0010716c
:02040e001711c4
:02040f001df3db
:020410001816bc
:02041100357044
:020412002c7943
:0204130008637c
:020414001026b0
:02041500128053
:0204160015c10e
:0204170028a417
:02041800084694
:02041900391296
:02041a000f07ca
:02041b000701d7
:02041c000dcf02
:02041d0007cb0b
:02041e0005b027
:02041f0002d009
:0204200039b8e9
:020421001bfac4
:020422003c9efe
:0204230008309f
:020424003aefad
:020425002ed8cf
:0204260002c80a
:02042700181f9c
:0204280002ce02
:020429003fade5
:02042a0000745c
:02042b00037a52
:02042c000a962e
:02042d0006b710
:02042e001da20d
:02042f0009744e
:0204300034ddb9
:020431001cb3fa
:020432000dd7e4
:0204330036f0a1
:020434003d5732
:020435003f4244
:0204360038eca0
:02043700274458
:020438000ab701
:020439001acbdc
:02043a0015119a
:02043b00058931
:02043c002cc5cd
:02043d001c970a
:02043e0020b1eb
:02043f00390082
:0204400013e2c5
:02044100053480
:020442003dd0ab
:020443000e5a4f
:020444003c3149
:020445000da305
:0204460014bae6
:0204470013edb3
:0204480031275a
:0204490033ec92
:02044a00327a04
:02044b00275533
:02044c00237318
:02044d0032bebd
:02044e003ff776
:02044f00227910
:0204500013a8ef
:02045100118612
:02045200087f21
:020453001c810a
:02045400107521
:0204550010e3b2
:020456001ccabe
:02045700280477
:020458000bc0d7
:020459001e285b
:02045a003ffb66
:02045b0013800c
:02045c000a4e46
:02045d00157d0b
:02045e00074154
:02045f0019dba7
:0204600020c5b5
:020461001e3645
:0204620036154d
:0204630036adb4
:02046400258fe2
:020465001d4335
:020466003dde79
:02046700002172
:020468000f1f64
:020469002674f7
:02046a0005d0bb
:02046b0037094f
:02046c00254722
:02046d00140574
:02046e002ff568
:02046f0004ef98
:02047000160173
:02047100145c19
:020472002c4616
:0204730033a3b1
:02047400351a37
:02047500350749
:02047600346fe1
:02047700297edc
:020478003b1f28
:020479002d2a2a
:02047a0005e794
:02047b000f5719
:02047c0009cda8
:02047d001a70f3
:02047e00258ccb
:02047f0004aec9
:020480000a046c
:020481003196b2
:020482001de675
:020483003a9f9e
:0204840007b5ba
:020485001a2f2c
:0204860007600d
:020487001fcd87
:020488000d0164
:0204890014c29b
:02048a003c0b29
:02048b00072444
:02048c00061553
:02048d000f85d9
:02048e0029a69d
:02048f002f58e4
:02049000349e98
:020491003837fa
:0204920008065a
:020493003efa2f
:020494003154e1
:0204950000acb9
:02049600391f0c
:020497003765c7
:0204980036012b
:020499003dbf65
:02049a002f2110
:02049b003cea39
:02049c0025ed4c
:02049d001f6ad4
:02049e00001349
:02049f002b9f91
:0204a0001054f6
:0204a100035204
:0204a2003759c8
:0204a3003e8c8d
:0204a40011370e
:0204a5002fe046
:0204a60026949a
:0204a7002a30f9
:0204a80035ac71
:0204a9002731f9
:0204aa002f52cf
:0204ab0018c671
:0204ac001c9f93
:0204ad00185dd8
:0204ae00047fc9
:0204af00258d99
:0204b0000291b7
:0204b1003b917d
:0204b2001f50d9
:0204b300059ba7
:0204b40003e75c
:0204b500009da8
:0204b6003b33d6
:0204b7003d8482
:0204b8002a7b9d
:0204b900030539
:0204ba00085eda
:0204bb001c0221
:0204bc001cae74
:0204bd002a0310
:0204be0039cc37
:0204bf00248f88
:0204c0000ab878
:0204c1003e6398
:0204c2000573c0
:0204c3002433e0
:0204c4001d2fea
:0204c5000a0625
:0204c60025f718
:0204c7001d4acc
:0204c80002a68a
:0204c9003b7f77
:0204ca003d787b
:0204cb0024c14a
:0204cc003f5d92
:0204cd001b7a98
:0204ce003d658a
:0204cf002a3dc4
:0204d00007041f
:0204d1002e9962
:0204d2000e8c8e
:0204d3002c6c8f
:0204d4000351d2
:0204d50019a16b
:0204d6001d31d6
:0204d7000679a4
:0204d8003ca046
:0204d90037e00a
:0204da00241ae2
:0204db00010519
:0204dc002d668b
:0204dd002c04ed
:0204de001f07f6
:0204df00379153
:0204e000116c9d
:0204e1003b4f8f
:0204e2002c915b
:0204e3002b29c3
:0204e4003cecee
:0204e50032f9ea
:0204e60034e2fe
:0204e70030bf24
:0204e800190eeb
:0204e9000556b6
:0204ea001140bf
:0204eb00234e9e
:0204ec002df3ee
:0204ed001fde10
:0204ee002ff4e9
:0204ef00046f98
:0204f000339344
:0204f100332ea8
:0204f20008bb45
:0204f300289e41
:0204f40002bc48
:0204f5002e27b0
:0204f6003e0abc
:0204f70013cf21
:0204f8003b9c2b
:0204f9003a6463
:0204fa003d19aa
:0204fb0016af3a
:0204fc000a0fe5
:0204fd0036794e
:0204fe002112c9
:0204ff000d9856
:02050000353b89
:020501001d9e3d
:020502000900ee
:02050300098a63
:020504001fdbfb
:02050500358639
:0205060038b10a
:0205070028b317
:020508001cc510
:02050900194691
:02050a002edce5
:02050b0017d502
:02050c0019d6fe
:02050d002e407e
:02050e0018e3f0
:02050f00039750
:02051000275969
:0205110015785b
:02051200009e49
:020513000128bd
:0205140037c6e8
:0205150026f5c9
:02051600154d81
:0205170011c40d
:0205180035a00c
:0205190016309a
:02051a002ccce7
:02051b00267246
:02051c00176066
:02051d002bf9b8
:02051e000af8d9
:02051f002f1794
:020520001dc8f4
:02052100021fb7
:0205220002587d
:020523003ea1f7
:0205240022357e
:0205250024a907
:0205260006c607
:0205270008b812
:0205280008a128
:0205290009d5f2
:02052a0005b614
:02052b00194e67
:02052c00331882
:02052d00233376
:02052e00344e49
:02052f001306b1
:02053000388f02
:02053100008f39
:020532000e2a8f
:0205330031bbda
:02053400044180
:0205350013e3ce
:0205360034ade2
:0205370024d9c5
:02053800286435
:020539000d2d86
:02053a0012f7b6
:02053b003ed7a9
:02053c002e5b34
:02053d000ca40c
:02053e00175450
:02053f0039562b
:020540003c324b
:0205410029058a
:0205420021fa9c
:020543000909a4
:0205440016207f
:020545000be4c5
:02054600253856
:02054700293752
:020548001dd6be
:0205490035bebd
:02054a0001139b
:02054b0008584e
:02054c00026447
:02054d003eb2bc
:02054e001dbfcf
:02054f002c3f3f
:020550003e5615
:020551000ac8d6
:020552003a4825
:0205530003574c
:02055400239ee4
:02055500242b55
:0205560004e9b6
:02055700190f7a
:0205580021e49c
:020559001d443f
:02055a002a93e2
:02055b003594d5
:02055c00098014
:02055d0036dd89
:02055e00144443
:02055f00293c35
:02056000190a76
:020561003794cd
:02056200160c75
:020563001f1b5c
:020564000aa2e9
:0205650031cf94
:020566000a8dfc
:02056700129de3
:020568001fb2c0
:020569002ff76a
:02056a000d4b37
:02056b001cacc6
:02056c002e95ca
:02056d003d2a25
:02056e002a1e43
:02056f0006bcc8
:020570002a124d
:020571000b2c51
:02057200243231
:0205730004c2c0
:0205740003770b
:0205750021f271
:020576002d1640
:0205770006d2aa
:02057800027a05
:020579003856f2
:02057a00171355
:02057b00306de1
:02057c000a3c37
:02057d002e0c42
:02057e00101259
:02057f00338eb9
:0205800015372d
:020581003da794
:020582003b70cc
:020583001588d9
:020584000d76f2
:020585003fd263
:0205860028f358
:0205870032320e
:0205880015104c
:02058900043b31
:02058a0029d670
:02058b001b67ec
:02058c001464f5
:02058d003c121e
:02058e003fd854
:02058f00075310
:02059000021354
:02059100319c9b
:020592000c0f4c
:02059300261927
:020594001dc484
:020595003eeb3b
:020596000ae277
:0205970001154c
:020598000b77df
:02059900032c31
:02059a001f51ef
:02059b0004b3a7
:02059c00021447
:02059d0000e973
:02059e001fd666
:02059f0011e168
:0205a000202e0b
:0205a1000f97b2
:0205a20020f93e
:0205a300005bfb
:0205a4003f8591
:0205a5003a0515
:0205a60018ab90
:0205a700092920
:0205a800153ffd
:0205a9000c5ee6
:0205aa00329588
:0205ab0029b66f
:0205ac003839dc
:0205ad001861d3
:0205ae0034a374
:0205af0013fb3c
:0205b000041e27
:0205b10002d175
:0205b2000c7fbc
:0205b300002d19
:0205b4003a18f3
:0205b5002441df
:0205b600052a14
:0205b700194fda
:0205b800294ccc
:0205b9003bf90c
:0205ba003761a7
:0205bb00065ade
:0205bc0027779f
:0205bd0038b74d
:0205be00102a01
:0205bf0011bd6c
:0205c000310404
:0205c100121f07
:0205c2001bd14b
:0205c300080c22
:0205c400338b77
:0205c500158b94
:0205c600220f02
:0205c7003ecc28
:0205c8002868a1
:0205c9000230fe
:0205ca0014a378
:0205cb002d3ac7
:0205cc003cbc35
:0205cd001b8889
:0205ce00094bd7
:0205cf0017f122
:0205d000046abb
:0205d1003708e9
:0205d20022996c
:0205d3003828c6
:0205d40021a75d
:0205d50014f818
:0205d60000170c
:0205d70018fd0d
:0205d80014709d
:0205d9001aa561
:0205da0031806e
:0205db002128d5
:0205dc003cd60b
:0205dd0024cf29
:0205de0013d137
:0205df0000ae6c
:0205e00008b061
:0205e10017ab56
:0205e200064ac7
:0205e30037855a
:0205e4003a914a
:0205e5003c4395
:0205e6000f56ae
:0205e700047a94
:0205e8002826c3
:0205e900316877
:0205ea00074bbd
:0205eb00247872
:0205ec00098d77
:0205ed0030db01
:0205ee0030805b
:0205ef003dad20
:0205f00034a134
:0205f1000702ff
:0205f2000a8a73
:0205f3003f8d3a
:0205f40033d3ff
:0205f50033f2df
:0205f600039f61
:0205f7001da93c
:0205f80006b843
:0205f9000331cc
:0205fa002a06cf
:0205fb00369137
:0205fc002528b0
:0205fd002c5c74
:0205fe002437a0
:0205ff001b9a45
:020600000d8764
:0206010037625e
:020602000d4f9a
:0206030016fae5
:0206040006c826
:020605000d04e2
:020606002f457e
:02060700087376
:02060800153d9e
:020609001a1eb7
:02060a00207d51
:02060b003805b0
:02060c0039b201
:02060d00071ec6
:02060e0015e5f0
:02060f002c3588
:020610002f7049
:020611003ae1cc
:02061200354b66
:0206130020ccf9
:020614000f8451
:02061500048c53
:020616001c24a2
:02061700363b70
:020618002c258f
:0206190023b10b
:02061a0019269f
:02061b0037aef8
:02061c0000d10b
:02061d00197e44
:02061e001fc4f7
:02061f0024dcd9
:0206200006e9e9
:02062100031fb5
:020622000b4784
:02062300220da6
:020624000cdaee
:020625002d6442
:02062600383367
:0206270025dfcd
:020628001b575e
:02062900286a3d
:02062a0025fdac
:02062b00355b3d
:02062c0039ade6
:02062d002f4854
:02062e00299a07
:02062f000b526c
:020630002ed0ca
:020631003b206c
:0206320015e9c8
:0206330014d5dc
:020634002e692d
:02063500037050
:02063600108b27
:02063700356527
:02063800110ea1
:020639002afd98
:02063a000ce4ce
:02063b003e4738
:02063c00037445
:02063d00322267
:02063e00213168
:02063f00005861
:02064000158f14
:02064100390876
:0206420032b7cd
:0206430021bada
:020644002dea9d
:0206450013f2ae
:020646000b099e
:0206470006baf1
:020648001bfe97
:020649003381fb
:02064a0005e2c7
:02064b003784f2
:02064c0029cfb4
:02064d001b8b05
:02064e001a2d63
:02064f001dd5b7
:0206500003475e
:020651003de486
:020652000a7a22
:02065300182766
:02065400181b71
:02065500155539
:02065600390a5f
:020657003579f3
:0206580020ed93
:0206590009672f
:02065a0005bbde
:02065b00376006
:02065c00362b3b
:02065d003f93c9
:02065e000ebad2
:02065f003aa1be
:02066000217dfa
:02066100161170
:0206620020dd99
:0206630029600c
:0206640024bcb4
:0206650024ed82
:02066600141f5f
:02066700027f10
:020668000d4043
:02066900169bde
:02066a003da2af
:02066b000d5927
:02066c001dfb74
:02066d000c4837
:02066e0013e691
:02066f0023acba
:02067000133d38
:0206710039bf8f
:020672000c7406
:02067300008302
:02067400314112
:0206750029c298
:0206760021eb76
:020677001693d8
:020678001d3033
:0206790004d7a4
:02067a001f8dd2
:02067b000faac4
:02067c00310744
:02067d002b4d03
:02067e001fa6b5
:02067f002dcf7d
:020680002986c9
:020681003e1c1d
:020682000c0a60
:0206830008214c
:0206840011293a
:020685002ebe87
:020686003d6fc6
:0206870029ee5a
:0206880022e26c
:020689003862d5
:02068a003e2808
:02068b00331327
:02068c003cd35d
:02068d0017cd87
:02068e0003283f
:02068f0014f560
:020690001e4802
:02069100234bf9
:0206920031bc79
:02069300371e10
:02069400381814
:020695001b7dcb
:020696001489c5
:020697000097ca
:020698001355f8
:020699003558d2
:02069a0036a286
:02069b000a83d0
:02069c0011f457
:02069d00143d0a
:02069e002c8ca2
:02069f002241f6
:0206a0000cd07c
:0206a10022171e
:0206a200026aea
:0206a3003a63b8
:0206a4002071c3
:0206a500395ac0
:0206a6002a0b1d
:0206a7002df62e
:0206a80037bc5d
:0206a9001587b3
:0206aa001657e1
:0206ab0034c851
:0206ac003f0508
:0206ad00300318
:0206ae002088a2
:0206af001591a3
:0206b0003c35d7
:0206b10015fa38
:0206b2003644cc
:0206b30033a66c
:0206b40028c05c
:0206b500082d0e
:0206b6000a97a1
:0206b700042d10
:0206b80005f843
:0206b90003300c
:0206ba000647f1
:0206bb000b082a
:0206bc00056fc8
:0206bd002a1ff2
:0206be003e5f9d
:0206bf00227b9c
:0206c0003039cf
:0206c1000987a7
:0206c2002257bd
:0206c3002a8586
:0206c40036df1f
:0206c500398179
:0206c600052607
:0206c70008b970
:0206c800060426
:0206c9000d051d
:0206ca003827cf
:0206cb001c23ee
:0206cc0009fe25
:0206cd0006d64f
:0206ce000a71af
:0206cf001433e2
:0206d0003dea01
:0206d1003c23c8
:0206d2000577aa
:0206d3002d17e1
:0206d400183fcd
:0206d50030777c
:0206d60006cd4f
:0206d70009ff19
:0206d8002714e5
:0206d900396b7b
:0206da0037c91e
:0206db0033c525
:0206dc00286193
:0206dd00122bde
:0206de00219861
:0206df002ca14c
:0206e000213bbc
:0206e1002e8861
:0206e2001734cb
:0206e3003336ac
:0206e4000f9372
:0206e5003a5683
:0206e60003bf50
:0206e7000f946e
:0206e800031eef
:0206e9000620e9
:0206ea003b30a3
:0206eb0029a143
:0206ec0032d802
:0206ed0011e317
:0206ee0002ba4e
:0206ef001e6e7d
:0206f0001f9851
:0206f1001afaf3
:0206f20034f5dd
:0206f30019af3d
:0206f4002034b0
:0206f5003b18b0
:0206f600221bc5
:0206f7003ae2e5
:0206f8000bcd28
:0206f90007aa4e
:0206fa002b2ba8
:0206fb00347554
:0206fc0026c80e
:0206fd0021b921
:0206fe000155a4
:0206ff00359c28
:020700000f06e2
:02070100041bd7
:0207020005f1ff
:0207030034a020
:0207040004d01f
:020705002e982c
:020706003519a3
:020707000fc51c
:02070800273e8a
:0207090018587e
:02070a0038f4c1
:02070b0030cdef
:02070c00002fbc
:02070d0002eafe
:02070e001ea328
:02070f00285d63
:020710000f20b8
:0207110026cdf3
:02071200229f24
:02071300384d5f
:02071400223b86
:020715000a6474
:0207160010dff2
:020717003f7c25
:0207180029feb8
:020719001cc101
:02071a000ef6d9
:02071b00341f89
:02071c000c05ca
:02071d0024872f
:02071e00060dc6
:02071f0039b3ec
:0207200021f8be
:0207210032089c
:02072200257739
:02072300129e24
:02072400048b44
:020725003c0a8c
:0207260022f2bd
:020727001d08ab
:0207280012f9c4
:020729000e724e
:02072a0014e9d0
:02072b0015ac0b
:02072c000c714e
:02072d0008863c
:02072e0020a603
:02072f0018c2ee
:020730002f7a1e
:02073100215f46
:0207320014a50c
:0207330031454e
:0207340024613e
:02073500195b4e
:02073600365239
:0207370021009f
:020738003b8df7
:020739000e525e
:02073a003f2856
:02073b003cee92
:02073c000ed4d9
:02073d00001aa0
:02073e0002fbbc
:02073f0023e4b1
:0207400019dac4
:02074100045e54
:020742001c9cfd
:020743002da0e7
:020744002e93f2
:0207450030a2e0
:0207460009a404
:02074700129905
:02074800192b6b
:020749002a90f4
:02074a00247910
:02074b0005eabd
:02074c0019e0b2
:02074d003fb0bb
:02074e0007fda5
:02074f00316413
:0207500026522f
:0207510015642d
:020752003fd98d
:02075300058f10
:02075400319bd7
:020755000b791e
:020756000f642e
:02075700159eed
:0207580003e2ba
:02075900372a3d
:02075a0038095c
:02075b00080a8a
:02075c002ec7a6
:02075d000cbcd2
:02075e002ab9b6
:02075f002989e6
:0207600004860d
:020761001fccab
:020762003a5a01
:0207630037a8b5
:020764003188da
:0207650021ff72
:0207660037500a
:0207670025bead
:020768003bd57f
:02076900133249
:02076a000e7807
:02076b00346bed
:02076c0036173e
:02076d003a0d43
:02076e002c104d
:02076f002d6dee
:0207700003f58f
:02077100165020
:020772001480f1
:02077300036f12
:0207740001f68c
:020775002cf363
:0207760016c7a4
:020777001376f7
:020778003199b5
:020779001b0360
:02077a0013ef7b
:02077b000e343a
:02077c0025eb6b
:02077d000b432c
:02077e00037303
:02077f001f2732
:020780001a134a
:02078100336bd8
:020782000977f5
:020783000e0066
:020784001ee76e
:02078500131f40
:020786002953f5
:020787003ade58
:0207880010eb74
:020789002c83bf
:02078a001164f8
:02078b0002acbe
:02078c002b47f9
:02078d00114613
:02078e002a1a25
:02078f0008a9b7
:020790000e2039
:020791003091a5
:020792001a400b
:0207930036bc72
:0207940026c07d
:02079500033b24
:020796003de242
:020797000b490c
:020798003a6eb7
:02079900247cbe
:02079a003c061b
:02079b003cd54b
:02079c002e61cc
:02079d0025b77e
:02079e001945fb
:02079f000f78d1
:0207a0003f20f8
:0207a1002659d7
:0207a2000853fa
:0207a3003df621
:0207a4000c79ce
:0207a50001bb96
:0207a6000da59f
:0207a700209b95
:0207a8002f0a16
:0207a90036997f
:0207aa0006f94e
:0207ab000bcc75
:0207ac002535f1
:0207ad002736ed
:0207ae003bbf4f
:0207af002650d2
:0207b0002ab16c
:0207b1003b25e6
:0207b2000eac8b
:0207b3000390b1
:0207b4001a2efb
:0207b5000484ba
:0207b6003c26df
:0207b70002a19d
:0207b8001569c1
:0207b9001bb56e
:0207ba0022100b
:0207bb0033bb4e
:0207bc000f3eee
:0207bd00219386
:0207be00112dfb
:0207bf003ae519
:0207c0002564ae
:0207c10023dd36
:0207c2000c2801
:0207c30037de1f
:0207c40003ac84
:0207c5003450ae
:0207c60039b444
:0207c7002623e7
:0207c8000fdd43
:0207c90030ed11
:0207ca000dce52
:0207cb00041d0b
:0207cc00004edd
:0207cd000a25fb
:0207ce00025acd
:0207cf003224d2
:0207d0002dcd2d
:0207d1000a0913
:0207d200256c94
:0207d30027c934
:0207d40012c849
:0207d5000cf620
:0207d60030fdf4
:0207d7003fa041
:0207d80001dd41
:0207d9000fd53a
:0207da0034e603
:0207db002a6989
:0207dc00291dd5
:0207dd001a669a
:0207de0030cb1e
:0207df0035b330
:0207e000141de6
:0207e1001b3dbe
:0207e2002e7374
:0207e3003eac2a
:0207e4003d00d6
:0207e50039d009
:0207e6001bc036
:0207e7001e31c1
:0207e8002909dd
:0207e9002aebf9
:0207ea0003b852
:0207eb002901e2
:0207ec002aa53c
:0207ed00334592
:0207ee00259b49
:0207ef0001e225
:0207f00015fff3
:0207f100187876
:0207f20032c112
:0207f3001d8463
:0207f4003eb80d
:0207f500313c95
:0207f6003a685f
:0207f7000f23ce
:0207f80017a543
:0207f9000c5b97
:0207fa00365d6a
:0207fb002c7060
:0207fc00316565
:0207fd00074ea5
:0207fe003d14a8
:0207ff0038af11
:0208000036932d
:020801002ba426
:0208020028cdff
:02080300148659
:020804002ce2e4
:0208050021c20e
:0208060004925a
:020807003efbb6
:020808000d637e
:020809000afce7
:02080a00075b8a
:02080b003808ab
:02080c0005c322
:02080d001bd0fe
:02080e002e0ab0
:02080f002c4873
:02081000309422
:020811003704aa
:02081200362f7f
:020813000828b3
:020814000c07cf
:020815000b7c5a
:0208160011bf10
:020817003dfea4
:020818000931a4
:02081900392084
:02081a002a1999
:02081b003a9908
:02081c0029a908
:02081d000af5da
:02081e002cd8d4
:02081f002cd5d6
:020820000c0bbf
:0208210006834c
:020822001ab802
:02082300352a74
:02082400341d81
:0208250029a503
:0208260026109a
:020827001ae2d3
:020828000813b3
:02082900362e69
:02082a00094083
:02082b00229c0d
:02082c0028c1e1
:02082d0006b50e
:02082e00145262
:02082f002b712b
:0208300004239f
:020831003c9fea
:020832001c891f
:02083300184c5f
:0208340025a2fb
:0208350032ccc3
:0208360021a1fe
:020837002d0290
:0208380024c6d4
:0208390017fda9
:02083a0021c4d7
:02083b002598fe
:02083c0002d8e0
:02083d0018ffa2
:02083e0001684f
:02083f0032d0b5
:020840001cdcbe
:0208410025aae6
:020842000dfdaa
:02084300228a07
:020844001e4f45
:020845002e8bf8
:02084600041894
:02084700391363
:020848003f5619
:020849001de1af
:02084a00176c29
:02084b0024fa8d
:02084c00016445
:02084d00335224
:02084e002e2e4c
:02084f002ff187
:0208500001673e
:020851002ddd9b
:020852003df770
:0208530007a2fa
:02085400003a68
:02085500184742
:0208560001bde2
:020857003a2243
:02085800054b4e
:0208590001128a
:02085a00217a01
:02085b00105b30
:02085c000ed1bb
:02085d003fca90
:02085e0004bada
:02085f001c0378
:02086000384f0f
:020861002f5016
:020862002c78f0
:0208630004137c
:0208640024caa4
:020865003ad285
:020866001b78fd
:0208670035e377
:020868003c8ac8
:020869001fe28c
:02086a001fa1cc
:02086b003972e0
:02086c001c76f8
:02086d0025e67e
:02086e0013a2d3
:02086f003ab994
:02087000277ae5
:0208710020e87d
:020872002f4411
:02087300060776
:0208740028a9b1
:020875001d471d
:0208760020e57b
:0208770036cf7a
:02087800344307
:02087900156008
:02087a002c6ae6
:02087b003b61df
:02087c003279cf
:02087d001a233c
:02087e001c80dc
:02087f00045221
:0208800009f17c
:020881001dcf89
:02088200029ad8
:020883002d182e
:020884001ee86c
:0208850039c177
:02088600072d3c
:020887000c70f3
:020888003c39f9
:02088900164a0d
:02088a0024f058
:02088b0032eb4e
:02088c000a5d03
:02088d001a2629
:02088e002bd766
:02088f000ef564
:020890003ab27a
:020891003ba684
:0208920019f655
:02089300182f1c
:02089400193d0c
:020895003445e8
:02089600318ba4
:02089700330329
:02089800339893
:020899001edd62
:02089a00195fe4
:02089b001b81bf
:02089c003dda43
:02089d003da577
:02089e00331d08
:02089f000d7fcb
:0208a00009d479
:0208a100052828
:0208a20008c389
:0208a3000f1a2a
:0208a400261e0e
:0208a5003447d6
:0208a6002c61c3
:0208a70020ac83
:0208a8002a1b09
:0208a900078fb7
:0208aa002a50d2
:0208ab00201516
:0208ac000e65d7
:0208ad002872af
:0208ae00140232
:0208af00279987
:0208b00005e061
:0208b10017aa84
:0208b2000f1421
:0208b3002c4ec9
:0208b4003ddc29
:0208b5002e55be
:0208b60009c077
:0208b700019ca2
:0208b800052712
:0208b90006c770
:0208ba00289f75
:0208bb0004f245
:0208bc00218198
:0208bd001f0218
:0208be002ecc3e
:0208bf003d28d2
:0208c0003243c1
:0208c1002a62a9
:0208c2000f1b0a
:0208c30008a289
:0208c400392bce
:0208c5000ed94a
:0208c600397780
:0208c7001f719f
:0208c80030e618
:0208c900095fc5
:0208ca002c8080
:0208cb003552a4
:0208cc001eef1d
:0208cd001169af
:0208ce002231d5
:0208cf0031a74f
:0208d00025ae53
:0208d10026a659
:0208d200133ad7
:0208d30016e32a
:0208d40002e838
:0208d5000170b0
:0208d60039a542
:0208d70039f0f6
:0208d80030826c
:0208d900019f7d
:0208da002823d1
:0208db003d8757
:0208dc0035db0a
:0208dd000ad33c
:0208de002056a2
:0208df003fbd1b
:0208e0002921cc
:0208e1001ddf19
:0208e2000a2edc
:0208e30021f6fc
:0208e4001623d9
:0208e500289356
:0208e6003bf0e5
:0208e70003a864
:0208e8001a8d67
:0208e9001f8965
:0208ea0038a232
:0208eb0019bc36
:0208ec003816bc
:0208ed002b32ac
:0208ee0014bf35
:0208ef003ca823
:0208f0003fae19
:0208f10021f1f3
:0208f200169559
:0208f3003db115
:0208f40020d210
:0208f5003cc401
:0208f600258a51
:0208f7001d12d0
:0208f80026c711
:0208f9001cfce5
:0208fa000d38b7
:0208fb00127772
:0208fc0012c622
:0208fd003a853a
:0208fe0002579f
:0208ff00393f7f
:020900000502ee
:02090100098b60
:0209020018cb10
:020903003fc8eb
:020904000ef3f0
:020905002fa120
:020906003f6e42
:020907001f9f30
:0209080021fbd1
:020909000543a4
:02090a002f3686
:02090b000c9d41
:02090c0003b036
:02090d0030f6c2
:02090e002dc7f3
:02090f00264977
:0209100024a120
:02091100240ab6
:020912000a6178
:020913003e673d
:020914003c2481
:02091500148349
:0209160003924a
:0209170001a637
:02091800212b91
:02091900283480
:02091a0025e3d3
:02091b0034099d
:02091c0014d3f2
:02091d002c7a32
:02091e0017ac14
:02091f001e6454
:020920001a4f6c
:020921002b5059
:020922003e3a5b
:020923003e2e66
:020924000403ca
:020925001d862d
:020926001f7d33
:020927001c7d35
:0209280018aa0b
:0209290005a720
:02092a00005675
:02092b000bbf00
:02092c003eaedd
:02092d0013f5c0
:02092e003993fb
:02092f0019901d
:0209300039216b
:020931000818a4
:020932003cfe89
:020933001dbbea
:0209340035b1db
:020935002bfa9b
:020936001e752c
:02093700187c2a
:0209380030d7b6
:0209390029157e
:02093a000fb5f7
:02093b001a722e
:02093c0022286f
:02093d002c2e5e
:02093e0037ee92
:02093f003a1d5f
:02094000082a83
:02094100229df5
:0209420001a909
:0209430033413e
:02094400398deb
:02094500349ae2
:020946001f464a
:020947003c373b
:020948002abac9
:0209490034b9bf
:02094a0017f0a4
:02094b0005ced7
:02094c00134a4c
:02094d00145a3a
:02094e0015187a
:02094f000e4652
:020950001ad6b5
:0209510001ffa4
:0209520031b9b9
:020953001f354e
:0209540017a9e1
:0209550010c3cd
:020956000c6330
:020957001d91f0
:020958002c6e03
:020959001f007d
:02095a002e0f5e
:02095b001f4833
:02095c00201e5b
:02095d0034e183
:02095e0030e780
:02095f0008c9c5
:02096000236909
:020961001b1960
:020962003fe96b
:0209630011f889
:020964000fa8da
:02096500324b13
:0209660020ec83
:0209670006592f
:0209680023d298
:0209690037391c
:02096a00226ffa
:02096b00025335
:02096c003fb892
:02096d0017026f
:02096e001ec2a7
:02096f0014066c
:02097000371c32
:02097100347fd1
:0209720023a3bd
:0209730013d699
:02097400042f4e
:020975001da3c0
:020976000e0170
:020977000782f5
:020978000e5718
:020979000ad79b
:02097a00372024
:02097b0039ef52
:02097c001ce677
:02097d0030a5a3
:02097e003066e1
:02097f0019adb0
:02098000055c14
:0209810036dc62
:020982003d1026
:020983000a5e0a
:020984002098b9
:02098500165901
:02098600303807
:0209870006c1a7
:020988002cb68b
:020989001d89c6
:02098a00050363
:02098b00090160
:02098c0030da5f
:02098d0005ec77
:02098e000ea5b4
:02098f003dcc5d
:02099000015311
:02099100331a17
:020992003f9e86
:0209930031f140
:020994001ebc87
:0209950001253a
:020996003041ee
:020997001b3e05
:020998003d8f91
:020999000ed27c
:02099a000dbd91
:02099b0010cd7d
:02099c003c938a
:02099d0011a4a3
:02099e00373fe1
:02099f0027909f
:0209a0000382d0
:0209a1002e70b6
:0209a200356db1
:0209a300368597
:0209a400074604
:0209a5001298a6
:0209a600163603
:0209a70012b18b
:0209a8002389a1
:0209a90020ab81
:0209aa002ef12c
:0209ab0039c24f
:0209ac002cb964
:0209ad0019bb74
:0209ae00211d09
:0209af001f55d2
:0209b0001e50d7
:0209b100271a03
:0209b2001bf038
:0209b3003c8482
:0209b400120d22
:0209b5001fb66b
:0209b60022a37a
:0209b7002a3ada
:0209b80016b374
:0209b9000c4be5
:0209ba00160223
:0209bb000eee3e
:0209bc002da26a
:0209bd0013d94c
:0209be0039e915
:0209bf003333d0
:0209c00008b677
:0209c100019d96
:0209c2003f866e
:0209c30003ca65
:0209c400346994
:0209c5001b60b5
:0209c60037b543
:0209c7000df52c
:0209c8001e7699
:0209c9000e77a7
:0209ca003b5d93
:0209cb0037d221
:0209cc001a719e
:0209cd00047ca8
:0209ce003a7e6f
:0209cf002c5f9b
:0209d0000c8792
:0209d10010dc38
:0209d20002ab76
:0209d300037ea1
:0209d40008a079
:0209d5000529f2
:0209d60011a767
:0209d7002951a4
:0209d80034d811
:0209d90021a952
:0209da000fef1d
:0209db0025b144
:0209dc0017fa08
:0209dd003f6772
:0209de002016e1
:0209df00280be3
:0209e0003be8f2
:0209e100188775
:0209e200199763
:0209e3001bd91e
:0209e400267c6f
:0209e5000d8f74
:0209e600144fac
:0209e700385581
:0209e800015eae
:0209e90028f1f3
:0209ea003532a4
:0209eb0012e612
:0209ec001f05e5
:0209ed003bc706
:0209ee002bc616
:0209ef002cc119
:0209f0001dce1a
:0209f10008807c
:0209f2001d32b4
:0209f3000cdc1a
:0209f4003cad18
:0209f5003f447d
:0209f600297660
:0209f7001c6a78
:0209f8002726b0
:0209f9000c8a66
:0209fa00391da5
:0209fb0036764e
:0209fc00108960
:0209fd002d07c4
:0209fe0006cc25
:0209ff0006d719
:020a000038bc00
:020a0100115c86
:020a02000ecf15
:020a030012de01
:020a040004806c
:020a0500319727
:020a060004c525
:020a07001d2ea2
:020a08002dccf3
:020a090007d113
:020a0a001ac30d
:020a0b002b6757
:020a0c003e7931
:020a0d0024645f
:020a0e00367838
:020a0f0004fce5
:020a10002c4375
:020a110027d2ea
:020a12000ca333
:020a13001ef3d0
:020a1400176e5b
:020a15001ce3e0
:020a160029cbea
:020a17003ecbd4
:020a18000cebe5
:020a190014e0e7
:020a1a001720a3
:020a1b0035cbd9
:020a1c002e505a
:020a1d002bc2ea
:020a1e0023eac9
:020a1f0017e6d8
:020a2000318d16
:020a210020753e
:020a22000abc0c
:020a230038f7a2
:020a2400004f81
:020a250007cdfb
:020a260000943a
:020a270034ebae
:020a28001be3ce
:020a2900105c5f
:020a2a00315b3e
:020a2b0022aef9
:020a2c00288719
:020a2d00129a1b
:020a2e0008e2dc
:020a2f0021f7ad
:020a30001ad0da
:020a31001cd7d0
:020a32000b189f
:020a3300165f4c
:020a3400166644
:020a3500238517
:020a3600133972
:020a37003c6918
:020a38000bb001
:020a39002e2865
:020a3a0037dda6
:020a3b002f2268
:020a3c00057c37
:020a3d002e0d7c
:020a3e0035aad7
:020a3f0003842e
:020a40000ee4c2
:020a41003c096e
:020a4200232e61
:020a430010069b
:020a4400012c83
:020a45000f9d03
:020a46003d7100
:020a47002ddfa1
:020a4800333b3e
:020a490016cdc8
:020a4a00307505
:020a4b0019abe5
:020a4c00036342
:020a4d0029fc82
:020a4e00045c46
:020a4f00157c14
:020a500026710d
:020a51001e3550
:020a520026cbb1
:020a530016e0ab
:020a540002dbc3
:020a55003072fd
:020a56000ca7eb
:020a57002e333c
:020a5800198cf7
:020a5900132365
:020a5a0033b8af
:020a5b0033481e
:020a5c001a2757
:020a5d00088c03
:020a5e0009830a
:020a5f003d1147
:020a60003e66f0
:020a6100091278
:020a620022660a
:020a63003d3420
:020a6400071574
:020a6500223a33
:020a66003afc58
:020a670012a5d6
:020a680020016b
:020a69001cb5ba
:020a6a002bd08f
:020a6b00036c1a
:020a6c003877d9
:020a6d0038a7a8
:020a6e00304d09
:020a6f00271d41
:020a700014323e
:020a710006ceaf
:020a720024b7a7
:020a73001f6ef4
:020a74002b5afb
:020a75002d0949
:020a76003d4af7
:020a770026f95e
:020a7800350c3b
:020a790027163e
:020a7a00065222
:020a7b0018263b
:020a7c000baac3
:020a7d002f0840
:020a7e001cabaf
:020a7f00293418
:020a80001e193d
:020a81001b4513
:020a820036a399
:020a8300069bd0
:020a840010fd63
:020a85000e4120
:020a860026a5a3
:020a8700193b19
:020a88000b1051
:020a89001566f0
:020a8a0005f273
:020a8b003f8c9e
:020a8c00129cba
:020a8d000566fc
:020a8e0036ba76
:020a8f003955d7
:020a90000eeb6b
:020a91003459d6
:020a92001adf69
:020a93002b54e2
:020a940022a896
:020a95003c40e3
:020a9600042c2e
:020a970006b6a1
:020a9800013229
:020a990031b07a
:020a9a001f59e2
:020a9b003f0f0b
:020a9c002cfe2e
:020a9d00321114
:020a9e00343ee4
:020a9f0018be7f
:020aa0001f2b0a
:020aa10001de74
:020aa2000564e9
:020aa30031ce52
:020aa4001d240f
:020aa50024e14a
:020aa600238aa1
:020aa7001d1e12
:020aa80011cf6c
:020aa90001d575
:020aaa003034e6
:020aab002d45d7
:020aac002055d3
:020aad0002de67
:020aae002ea672
:020aaf001c5bce
:020ab00010f242
:020ab10022a57c
:020ab2000ea292
:020ab30015121a
:020ab4003768a1
:020ab5003255b8
:020ab6001aca5a
:020ab700043801
:020ab80004c078
:020ab9003e629b
:020aba00394fb2
:020abb000d89a3
:020abc000a220c
:020abd0038f609
:020abe00149e84
:020abf00007fb6
:020ac0000c85a3
:020ac1003b7b7d
:020ac2001bca4d
:020ac3002b39cd
:020ac4000b061f
:020ac5002357b5
:020ac6002dac55
:020ac7003651a6
:020ac8000551d6
:020ac9003e5796
:020aca003ac62a
:020acb00203acf
:020acc0027679a
:020acd0036e809
:020ace002b6f8c
:020acf000eae69
:020ad0000fd93c
:020ad10037727a
:020ad20035da13
:020ad30008dd3c
:020ad400248478
:020ad5002a4ca9
:020ad6000e56ba
:020ad70009799b
:020ad800356b7c
:020ad9002a777a
:020ada001e9567
:020adb00117f89
:020adc00150ff4
:020add002ebd2c
:020ade00035eb5
:020adf0038fce1
:020ae0001509f6
:020ae1002a5e8b
:020ae200059677
:020ae3000114fc
:020ae4001219e5
:020ae50001d935
:020ae6000261ab
:020ae700157187
:020ae800239a4f
:020ae9002004e7
:020aea0010f901
:020aeb003b1cb2
:020aec00168b67
:020aed002ee1f8
:020aee0003699a
:020aef003f9630
:020af000013dc6
:020af100028879
:020af2001c2bbb
:020af300289d3c
:020af40029a82f
:020af500081dda
:020af6003a17ad
:020af7002d7858
:020af800051ed9
:020af9002f16b6
:020afa001706dd
:020afb003e9328
:020afc000809e7
:020afd000d6288
:020afe0019c716
:020aff0030f2d3
:020b000028ba11
:020b010013746b
:020b02003cf2c3
:020b0300113ba4
:020b04001db81a
:020b05001ef7d9
:020b06000ac41f
:020b0700235673
:020b080006bb2a
:020b090006469e
:020b0a001fe9e1
:020b0b003ea703
:020b0c00365859
:020b0d0013d300
:020b0e001919b3
:020b0f0031f2c1
:020b10000a8851
:020b1100156766
:020b1200203c85
:020b1300359714
:020b140014ebe0
:020b150034a406
:020b16002f921c
:020b170017f4d1
:020b18000a329f
:020b1900165e66
:020b1a001e09b2
:020b1b00134c79
:020b1c001feccc
:020b1d0017b30c
:020b1e0021882c
:020b1f002ac9e1
:020b2000232888
:020b21003ebcd8
:020b220018ceeb
:020b23001a783e
:020b2400242685
:020b25001112ab
:020b2600312d6f
:020b2700315e3d
:020b28000ee2db
:020b2900394d44
:020b2a003d5438
:020b2b002dd1ca
:020b2c00057151
:020b2d002a1389
:020b2e0022abf8
:020b2f0016327c
:020b3000279a02
:020b3100361b71
:020b320001962a
:020b3300146844
:020b34002d8909
:020b35003be2a1
:020b3600207825
:020b3700336029
:020b3800010ab0
:020b39002a5937
:020b3a00225542
:020b3b003e2159
:020b3c000febbd
:020b3d00189fff
:020b3e002ad1ba
:020b3f000ddbcc
:020b400010178c
:020b41001c0591
:020b420025eaa2
:020b4300077d2c
:020b4400325d20
:020b4500198312
:020b4600220c7f
:020b4700062284
:020b48003de38b
:020b490007970c
:020b4a003f2347
:020b4b0029b9c6
:020b4c002e7405
:020b4d001a820a
:020b4e0026b5ca
:020b4f00177f0e
:020b500028bebd
:020b51000c1185
:020b5200062f6c
:020b5300299bdc
:020b54003b6bf9
:020b5500334b20
:020b560014dbae
:020b57003e73eb
:020b58003e3d20
:020b59001894ee
:020b5a002e115a
:020b5b0038c29e
:020b5c003870ef
:020b5d000be1aa
:020b5e002bdc8e
:020b5f0018dba1
:020b6000020f82
:020b61001b9fd8
:020b6200234925
:020b630026ee7c
:020b6400241e4d
:020b65003e6ce4
:020b6600223734
:020b67000e1965
:020b68001d0c62
:020b69001b551a
:020b6a00300158
:020b6b002b1845
:020b6c000295f0
:020b6d00114332
:020b6e002e86d1
:020b6f0033252c
:020b700014a6c9
:020b71002676e6
:020b72003fdd65
:020b7300282038
:020b74003991b5
:020b75001b0d56
:020b7600032d4d
:020b77000598df
:020b7800319ab0
:020b790007551e
:020b7a003e7ac1
:020b7b001e92c8
:020b7c0008155a
:020b7d000c0664
:020b7e002aff4c
:020b7f00102d37
:020b80001882d9
:020b810012da86
:020b82002b2e18
:020b830015f467
:020b84002fc977
:020b85003bde55
:020b8600040663
:020b87001856fe
:020b88003be44c
:020b8900249bab
:020b8a0028e45d
:020b8b0032a096
:020b8c0033260e
:020b8d000c4713
:020b8e001f66e0
:020b8f001a6ae0
:020b900014341b
:020b91000c5303
:020b9200011848
:020b93001ebb87
:020b94002870c7
:020b95003bb172
:020b9600169daa
:020b9700317ab1
:020b98001e5edf
:020b99001e82ba
:020b9a000dc488
:020b9b0017de63
:020b9c002684ad
:020b9d002d30f9
:020b9e0029d953
:020b9f002d72b5
:020ba00002351c
:020ba1001e3ff5
:020ba2001b84b2
:020ba30039a86f
:020ba400336daf
:020ba5003869ad
:020ba6001c141d
:020ba700302af2
:020ba80032f227
:020ba900252203
:020baa000a7cc3
:020bab002f0910
:020bac00222afb
:020bad003a40cc
:020bae002e5fb8
:020baf00107bb9
:020bb0000a3801
:020bb1002e29eb
:020bb2002f739f
:020bb30022f826
:020bb40018c067
:020bb5002ecb45
:020bb600109499
:020bb700142800
:020bb8001e6bb2
:020bb9003c4cb2
:020bba003046c3
:020bbb002a739b
:020bbc002bc943
:020bbd00161b05
:020bbe000057de
:020bbf00092b00
:020bc0000458d7
:020bc1001e29eb
:020bc20029f414
:020bc30012a975
:020bc400032507
:020bc50037fdfa
:020bc60039e311
:020bc70019f51e
:020bc8003f6983
:020bc9001ff11a
:020bca003c00ed
:020bcb00011017
:020bcc0007ab75
:020bcd0006f828
:020bce00023de6
:020bcf00327c76
:020bd0001413fc
:020bd10021c839
:020bd20018b455
:020bd300309759
:020bd40021847a
:020bd5001162ab
:020bd600123ccf
:020bd700300ddf
:020bd80026e70e
:020bd9003fda01
:020bda003a4c93
:020bdb0023ba3b
:020bdc001840bf
:020bdd0011b154
:020bde003cf7e2
:020bdf003bdaff
:020be00038716a
:020be1000b5daa
:020be20003818d
:020be3001e0de5
:020be4000545c5
:020be5001621d7
:020be6003de7e9
:020be7002729bc
:020be8003bc808
:020be9001b529d
:020bea0019f9f7
:020beb0025c91a
:020bec0023eef6
:020bed00306472
:020bee002cf5e4
:020bef001736b7
:020bf000035ca4
:020bf1000c8f67
:020bf20023b925
:020bf300143eae
:020bf4001503e7
:020bf5002f824d
:020bf60039695b
:020bf7001001eb
:020bf800129455
:020bf900326860
:020bfa00162eb5
:020bfb0030bc0c
:020bfc00303a8d
:020bfd0013b82b
:020bfe000dcd1b
:020bff0023ffd2
:020c000024e2ec
:020c01002cebda
:020c02001bb124
:020c03000cb72c
:020c0400248644
:020c0500071cca
:020c06000b7d64
:020c07000814cf
:020c0800036483
:020c0900340ca9
:020c0a00068260
:020c0b000820bf
:020c0c0035832e
:020c0d002aa813
:020c0e002618a6
:020c0f0005924c
:020c100028bffb
:020c11000b5185
:020c12000d0fc4
:020c130014f6d5
:020c1400321f8d
:020c1500208b32
:020c16003e237b
:020c170033eeba
:020c18001cd9e5
:020c19002fb4f6
:020c1a00038f46
:020c1b00180bb4
:020c1c0028d3db
:020c1d0022ebc8
:020c1e00343b65
:020c1f0024af00
:020c200017b803
:020c210001b020
:020c22003f5140
:020c2300007659
:020c2400388412
:020c250020406d
:020c2600106656
:020c270002b910
:020c280007c201
:020c290037dfb3
:020c2a00024680
:020c2b00170ea2
:020c2c000e12a6
:020c2d0002ffc4
:020c2e00393c4f
:020c2f002feca8
:020c300034335b
:020c310039d3b5
:020c320033f994
:020c33002f117f
:020c34000c931f
:020c35003be0a2
:020c36001bd7ca
:020c37001b267a
:020c380022494f
:020c3900245d38
:020c3a000cbfed
:020c3b003f7008
:020c3c000fe2c5
:020c3d002a2d5e
:020c3e00126e34
:020c3f00324140
:020c400021553c
:020c410017009a
:020c420023aedf
:020c43003391eb
:020c4400278205
:020c4500330773
:020c4600332752
:020c47000b8d13
:020c4800066d37
:020c49001dfa92
:020c4a0016b2e0
:020c4b0009b9e5
:020c4c003e3830
:020c4d003f4620
:020c4e0030cea6
:020c4f001fd4b0
:020c50002f8ae9
:020c510016d3b8
:020c5200143557
:020c53000b9103
:020c540030df8f
:020c550012503b
:020c5600388cd8
:020c570026a9cc
:020c58003ef765
:020c59001d3c40
:020c5a0017a4dd
:020c5b0007f997
:020c5c0014cdb5
:020c5d001d7ff9
:020c5e0005a9e6
:020c5f00153e40
:020c6000176813
:020c61000e5e25
:020c62001d90e3
:020c6300095630
:020c640028d591
:020c65003bd181
:020c6600284b19
:020c6700164431
:020c6800351540
:020c6900343421
:020c6a0001b8cf
:020c6b003e4dfc
:020c6c002a64f8
:020c6d0013f979
:020c6e003893b9
:020c6f001a4821
:020c70000887f3
:020c7100072c4e
:020c7200375fea
:020c730016fd6c
:020c7400067206
:020c75000082fb
:020c76003d023d
:020c7700026d0c
:020c780001babf
:020c790007a4ce
:020c7a0019114e
:020c7b00295af4
:020c7c0032b98b
:020c7d003d1721
:020c7e00002c48
:020c7f0005b2bc
:020c800028e664
:020c8100039ad4
:020c82001c84d0
:020c83000cadb6
:020c84003b7ab9
:020c85000ac0a3
:020c860010dd7f
:020c870009d092
:020c880016f55f
:020c89001f3c0e
:020c8a0009f966
:020c8b00272719
:020c8c0027a59a
:020c8d00390c20
:020c8e00035d04
:020c8f000bf167
:020c90000dff56
:020c91001acf78
:020c92003be144
:020c93000c341f
:020c940002f16b
:020c95001161eb
:020c96001bc27f
:020c9700224bee
:020c980036c65e
:020c990024eb4a
:020c9a002fe445
:020c9b003d38e2
:020c9c002f37f0
:020c9d00090b41
:020c9e002ccb5d
:020c9f002f3ce8
:020ca0002382ad
:020ca1003464b9
:020ca2001ef240
:020ca3000a1233
:020ca400053d0c
:020ca5002e5ac5
:020ca6002e32ec
:020ca7000a56eb
:020ca8002e2cf0
:020ca900001f2a
:020caa00288b95
:020cab0036be53
:020cac001c85a5
:020cad000c83b6
:020cae00389d6f
:020caf0037000c
:020cb0003257b9
:020cb10003a599
:020cb200269288
:020cb30020d44b
:020cb40020fc22
:020cb50033b05a
:020cb6001bb071
:020cb7000c032c
:020cb8003934cd
:020cb9003f16e4
:020cba003de813
:020cbb0021ed29
:020cbc00075dd2
:020cbd002ec641
:020cbe003f7184
:020cbf000c3aed
:020cc000329f61
:020cc10020fb16
:020cc2002929de
:020cc3003f2dc3
:020cc400324fad
:020cc50039f7fd
:020cc60014b068
:020cc70035f8fe
:020cc800125eba
:020cc900329a5d
:020cca003057a1
:020ccb0037b040
:020ccc00282ed0
:020ccd000fc155
:020cce00231ee3
:020ccf0038a04b
:020cd00006a07c
:020cd1002216e9
:020cd200296c8b
:020cd3003af5f0
:020cd4001ed12f
:020cd50024ab4e
:020cd600248d6b
:020cd7002dab43
:020cd8002cdc12
:020cd9002ba34b
:020cda000624ee
:020cdb002d6585
:020cdc0009f31a
:020cdd001d33c5
:020cde0011d62d
:020cdf00188576
:020ce0002bbf28
:020ce100348855
:020ce2003efed4
:020ce30025a545
:020ce400063ace
:020ce5003e4689
:020ce60022608a
:020ce70030eaf1
:020ce8003a814f
:020ce90037fad8
:020cea0014e113
:020ceb000a18e5
:020cec0032d400
:020ced000e8077
:020cee00296873
:020cef0032864b
:020cf0000e985c
:020cf10013e509
:020cf200204a96
:020cf300334389
:020cf4002de7ea
:020cf50037be08
:020cf60007d520
:020cf70012c920
:020cf8003aa21e
:020cf900243d98
:020cfa0037873a
:020cfb001124c2
:020cfc000fd314
:020cfd00375569
:020cfe0034c6fa
:020cff000fa143
:020d000014c31a
:020d0100048864
:020d02001f0ec2
:020d030030249a
:020d04000605e2
:020d050006c91d
:020d0600263194
:020d07002e16a6
:020d08002ab50a
:020d090022972f
:020d0a00175f71
:020d0b002a1d9f
:020d0c003c9613
:020d0d0031a40f
:020d0e0014f7d8
:020d0f000c12c4
:020d100011715f
:020d110020b30d
:020d12001c3192
:020d1300111ab3
:020d14001f14aa
:020d1500244b6d
:020d16003ba8f8
:020d17000f6863
:020d18003c4855
:020d1900328422
:020d1a0029c7e7
:020d1b002bdecd
:020d1c00019440
:020d1d00242e82
:020d1e00285b50
:020d1f001a1d9b
:020d20000f249e
:020d21002b8e17
:020d2200338418
:020d230016c5f3
:020d240018ded7
:020d2500252681
:020d26001b8f21
:020d270012e1d7
:020d28001c0ca1
:020d29002c5448
:020d2a002f9ff9
:020d2b001be6c5
:020d2c00286538
:020d2d00053986
:020d2e00226a37
:020d2f002d96ff
:020d30002b8b0b
:020d31003fe49d
:020d32001aacf9
:020d33000fbaf5
:020d34001b5151
:020d3500171e87
:020d3600276034
:020d3700368bf9
:020d380008fab7
:020d3900127630
:020d3a00283f50
:020d3b00033281
:020d3c00164659
:020d3d0022fb97
:020d3e0033017f
:020d3f001db6df
:020d4000066843
:020d4100169a00
:020d4200332a52
:020d430029e0a5
:020d4400013577
:020d45001c117f
:020d46003f105c
:020d47003a74fc
:020d480032195e
:020d490037076a
:020d4a001cadde
:020d4b00056a37
:020d4c0037244a
:020d4d0021afd4
:020d4e0016fb92
:020d4f0006029a
:020d50001bdea8
:020d510019eb9c
:020d520028e295
:020d530034f674
:020d5400290a6a
:020d550031caa1
:020d56001a641d
:020d570035174e
:020d58003da3b9
:020d5900066b27
:020d5a003a203d
:020d5b0016d5ab
:020d5c00104441
:020d5d00207ef6
:020d5e0028e982
:020d5f003ec78d
:020d60003c3b1a
:020d6100128fef
:020d62000afd88
:020d630008087e
:020d64001b2250
:020d6500156c0b
:020d660019d39f
:020d67001bfc73
:020d6800146015
:020d69002d4a11
:020d6a0026372a
:020d6b0012a0d4
:020d6c00276af4
:020d6d003cc286
:020d6e0020372c
:020d6f0012e987
:020d700002fc83
:020d7100104e22
:020d72000198e6
:020d73001a77ed
:020d740021025a
:020d750027e570
:020d76000584f2
:020d77003fd368
:020d78002096c3
:020d79003e1624
:020d7a00372e12
:020d7b001a1745
:020d7c003d0e2a
:020d7d000de285
:020d7e00331c24
:020d7f00089fcb
:020d80003a3dfa
:020d81002773d6
:020d820026e267
:020d83002cb38f
:020d8400330a30
:020d85001675e1
:020d86003763d1
:020d8700060064
:020d8800394ee2
:020d89000abba3
:020d8a003ee148
:020d8b001cba90
:020d8c000293d0
:020d8d0000283c
:020d8e00267dc0
:020d8f0009e574
:020d900003025c
:020d91001ac87e
:020d920024a398
:020d9300186ed8
:020d94003e32ed
:020d9500246dcb
:020d96002c30ff
:020d97003942df
:020d980004ff56
:020d9900211324
:020d9a00036be9
:020d9b00307fa7
:020d9c00271915
:020d9d003edd39
:020d9e002838f3
:020d9f00132e11
:020da0001ef53e
:020da1001975c2
:020da2003c30e3
:020da300044505
:020da400209a93
:020da50007a69f
:020da60034aa6d
:020da70036e72d
:020da8002e3edd
:020da90017d25f
:020daa003a1af3
:020dab0014959d
:020dac002147dd
:020dad002867b5
:020dae0026de3f
:020daf001e4cd8
:020db000138aa4
:020db10014f339
:020db2003e946d
:020db30017ed3a
:020db40039c53f
:020db50029977c
:020db6003bc33d
:020db700260410
:020db8003611f2
:020db9002ee228
:020dba002b34d8
:020dbb001edb3d
:020dbc0010cc59
:020dbd00099a91
:020dbe0034718e
:020dbf000064ce
:020dc00032bc43
:020dc1002044cc
:020dc2001744d4
:020dc3003c9d55
:020dc4000b9a88
:020dc50017df36
:020dc600199b77
:020dc70025c045
:020dc80025e81c
:020dc9003530c3
:020dca001d2bdf
:020dcb00010322
:020dcc0023fe04
:020dcd000bfe1b
:020dce0007ca52
:020dcf00041c02
:020dd000018f91
:020dd100007aa6
:020dd20003100c
:020dd300168f79
:020dd4001d9868
:020dd5003f4895
:020dd60036f1f4
:020dd7000432e4
:020dd800196c94
:020dd90028bd33
:020dda002ad01d
:020ddb000b3fcc
:020ddc00015db7
:020ddd0020cf25
:020dde000f37cd
:020ddf003c4a8c
:020de0000fcc36
:020de100192ccb
:020de2000d7d85
:020de3003d0fc2
:020de400385b7a
:020de500158473
:020de6002ef6e7
:020de70012fff9
:020de800101adf
:020de90025d112
:020dea001d8c5e
:020deb00364e82
:020dec00332ca6
:020ded0037d0fd
:020dee001d7175
:020def001aa048
:020df00027c713
:020df10020ba26
:020df20003d527
:020df3001a568e
:020df40037b412
:020df50009c72c
:020df600381ba8
:020df700340abc
:020df800136482
:020df9002dc308
:020dfa0032fdc8
:020dfb00212ea7
:020dfc00228b48
:020dfd000842aa
:020dfe001ace0b
:020dff000c9056
:020e0000078366
:020e0100097670
:020e0200202ca2
:020e0300366651
:020e040020d9f3
:020e05003b5858
:020e06001a5080
:020e070027f5cd
:020e080002687e
:020e09001d19b1
:020e0a00174c83
:020e0b003d2e7a
:020e0c0038adff
:020e0d002e4e67
:020e0e0025c3fa
:020e0f0024b30a
:020e1000139f2e
:020e1100340f9c
:020e12000c2ca6
:020e130002fedd
:020e14001c7a46
:020e1500157b4b
:020e16003a4759
:020e17003fabef
:020e1800223680
:020e19000b6765
:020e1a00017560
:020e1b0011a91b
:020e1c002d7037
:020e1d002ebaeb
:020e1e00360f8d
:020e1f002d6f35
:020e2000079039
:020e210030900f
:020e2200314756
:020e2300315844
:020e2400336e2b
:020e2500128336
:020e26003e0785
:020e270010c1f8
:020e2800333c59
:020e290003d6ee
:020e2a0005328f
:020e2b0031bada
:020e2c002a4e4c
:020e2d00190d9d
:020e2e001fbee5
:020e2f00280099
:020e300014ffad
:020e3100149b10
:020e32002c4151
:020e330002a318
:020e3400077b3a
:020e350013eeba
:020e3600382e54
:020e3700104960
:020e3800242371
:020e390010297e
:020e3a00306224
:020e3b0010d8cd
:020e3c0021276c
:020e3d001c286f
:020e3e003ef87c
:020e3f002b7c0a
:020e400010fca4
:020e41000a8520
:020e4200190491
:020e4300323447
:020e4400309ae2
:020e45003bc5ab
:020e4600094f52
:020e470015197b
:020e4800206424
:020e49002985f9
:020e4a001e0583
:020e4b001dcbbd
:020e4c0011791a
:020e4d0032e091
:020e4e000e8410
:020e4f0030b8b9
:020e50002b5d18
:020e5100316e00
:020e520007395e
:020e53003b8cd6
:020e540028551f
:020e550016295c
:020e56000ad6ba
:020e5700097818
:020e580024195b
:020e59002dfb6f
:020e5a0004434f
:020e5b003dd187
:020e5c00105331
:020e5d001b1662
:020e5e000c6125
:020e5f00176911
:020e600017bdbc
:020e61003c5bf8
:020e6200328ece
:020e63001ea9c6
:020e64002873f1
:020e650008acd7
:020e66003a83cd
:020e67001c4528
:020e6800301147
:020e69002b015b
:020e6a002e8ccc
:020e6b0035a2ae
:020e6c001b2940
:020e6d001f184c
:020e6e001080f2
:020e6f001ae97e
:020e70003fe75a
:020e71002ede73
:020e720007294e
:020e730012f873
:020e74001f94c9
:020e75002bd977
:020e76001e77e5
:020e770009c9a7
:020e7800076a07
:020e7900346ad9
:020e7a00000d69
:020e7b002d2f19
:020e7c00235cf5
:020e7d002a2920
:020e7e0011f26f
:020e7f003069d8
:020e80000ced77
:020e810032d568
:020e8200022f3d
:020e8300149dbc
:020e84000e4e10
:020e850030b982
:020e860016d084
:020e87001379dd
:020e88003568cb
:020e890011ee68
:020e8a001851fd
:020e8b0003e082
:020e8c0004d28e
:020e8d002c6dca
:020e8e002b6dca
:020e8f00154efe
:020e90002eb47e
:020e91003ef031
:020e9200154801
:020e93002f68c6
:020e9400301d0f
:020e9500020455
:020e960002f563
:020e9700140e37
:020e98000cf05c
:020e990013e460
:020e9a001fd85f
:020e9b0003e969
:020e9c0021df54
:020e9d00351c02
:020e9e0018b288
:020e9f003e8390
:020ea000132914
:020ea1000f5fe1
:020ea2000ab292
:020ea300151325
:020ea4003dcd42
:020ea500098eb4
:020ea60020e644
:020ea7003c66a7
:020ea8003aec22
:020ea9000ef148
:020eaa00279d82
:020eab003d25e3
:020eac0007b28b
:020ead000391af
:020eae000acf69
:020eaf002b6ea8
:020eb00001f14e
:020eb1001d170b
:020eb2001b958e
:020eb3002cb55c
:020eb4003e25d9
:020eb5001df727
:020eb600040531
:020eb7001ac758
:020eb8003542c1
:020eb90000f344
:020eba00065ed2
:020ebb003aa05b
:020ebc00377d80
:020ebd002d32d4
:020ebe0036e517
:020ebf00299870
:020ec0000243eb
:020ec1000f6bb5
:020ec2000fe639
:020ec300124ad1
:020ec4001d2de2
:020ec500235aae
:020ec6001bd43b
:020ec7002bac52
:020ec80018c44c
:020ec9002246bf
:020eca0032de16
:020ecb002a9665
:020ecc001ba861
:020ecd000236eb
:020ece0012df31
:020ecf000a0215
:020ed0003fcb16
:020ed100085cbb
:020ed20009997c
:020ed3003d8e52
:020ed400073cd9
:020ed500001b00
:020ed6003814ce
:020ed70013897d
:020ed800392ab5
:020ed90008c54a
:020eda003f27b0
:020edb001a7e7d
:020edc001608f6
:020edd003dbd19
:020ede00349747
:020edf001c3fb6
:020ee00023db12
:020ee1001eeb06
:020ee2000b28db
:020ee300394c88
:020ee4000a40c2
:020ee5003c08c7
:020ee600239651
:020ee70013e016
:020ee80000fb0d
:020ee9003b26a6
:020eea0034587a
:020eeb000a906b
:020eec00294299
:020eed001a47a2
:020eee0009bb3e
:020eef001603e8
:020ef0003aedd9
:020ef1000ea948
:020ef2002fa02f
:020ef3000904f0
:020ef4002bd6fb
:020ef500088f64
:020ef600071ad9
:020ef700341ea7
:020ef80030d4f4
:020ef9002e20a9
:020efa0027804f
:020efb00380bb2
:020efc00239839
:020efd00189249
:020efe002db213
:020eff003dd8dc
:020f00002f2898
:020f01003df3be
:020f02003b941e
:020f0300374b6a
:020f0400269a2b
:020f05003b4768
:020f06000700e2
:020f0700041aca
:020f08002d5268
:020f0900245072
:020f0a002bae0c
:020f0b003d5e49
:020f0c00368825
:020f0d0013af20
:020f0e001d6f55
:020f0f002f436e
:020f10002a5461
:020f11003d4c55
:020f1200346049
:020f13002ee4ca
:020f140008b221
:020f15002c4f5f
:020f1600015682
:020f17002601b1
:020f180037821e
:020f190033ddc6
:020f1a0008a32a
:020f1b0008c20a
:020f1c00150db1
:020f1d0031722f
:020f1e00267536
:020f1f00046864
:020f20000710b8
:020f210026ccdc
:020f22003a692a
:020f230007f7ce
:020f24000d209e
:020f25002b8f10
:020f26001b5e50
:020f2700195758
:020f2800136054
:020f290037d5ba
:020f2a0023bce6
:020f2b0031d1c2
:020f2c001ef1b4
:020f2d0021efb2
:020f2e00278515
:020f2f00173079
:020f30001d376b
:020f310023d4c7
:020f3200123e6d
:020f330030e9a3
:020f34001e039a
:020f35003cd9a5
:020f36003c4b32
:020f37000ddecd
:020f3800351171
:020f3900337d06
:020f3a0030fa8b
:020f3b00139011
:020f3c002e8302
:020f3d003989f0
:020f3e0007bcee
:020f3f002192fd
:020f40001f9000
:020f4100173265
:020f4200310d6f
:020f43003fd499
:020f440026087d
:020f45001ff893
:020f46001efb90
:020f4700385d13
:020f4800241d66
:020f490016f69a
:020f4a0022fc87
:020f4b0038da92
:020f4c0024f38c
:020f4d00298ced
:020f4e00326c03
:020f4f002cb1c3
:020f5000178503
:020f510014fb8f
:020f5200396df7
:020f53003c441c
:020f5400215d1d
:020f55002ca8c6
:020f560005e6ae
:020f5700047b19
:020f580030bbac
:020f5900207600
:020f5a00139be7
:020f5b00023f53
:020f5c003ffe56
:020f5d0002325e
:020f5e00132856
:020f5f000ea1e1
:020f60003779df
:020f610012dca0
:020f62003fb39b
:020f630001f596
:020f640007562e
:020f6500159fd6
:020f660001c8c0
:020f6700122d49
:020f68000d1763
:020f69003ba9a2
:020f6a00024241
:020f6b000ec1b5
:020f6c001e1352
:020f6d00122947
:020f6e002371ed
:020f6f001c67fd
:020f70002895c2
:020f710032c389
:020f72002ffb53
:020f7300263c1a
:020f7400110862
:020f750003f780
:020f76003bfc42
:020f770022d086
:020f7800079fd1
:020f7900194419
:020f7a0032e85b
:020f7b003b72c7
:020f7c002ab792
:020f7d0034fb43
:020f7e003f53df
:020f7f002881c7
:020f800012b2ab
:020f8100117ae3
:020f820033cf6b
:020f83002b63de
:020f8400061451
:020f8500048dd9
:020f86001bef5f
:020f87001a044a
:020f880001d690
:020f8900339b98
:020f8a001a2823
:020f8b002bf346
:020f8c001cda6d
:020f8d002c1a1c
:020f8e00313000
:020f8f00261723
:020f900025cf6b
:020f910038b96d
:020f92003a57cc
:020f930006e472
:020f940006e76e
:020f950003be99
:020f9600202f0a
:020f970005a1b2
:020f9800002730
:020f9900024e06
:020f9a002733fb
:020f9b002d9493
:020f9c00012d25
:020f9d000a4503
:020f9e00191226
:020f9f00236fbe
